:02000004C0D06A
:10000000F0B58DB062B63848784402F0DFFF2E4973
:1000100000240C702D4908602D4804702D483C22A6
:10002000214602F0CAF82C488022214602F0C5F889
:1000300002F0A8F8294D01273902284606F0E8FB0E
:1000400001AE304606F0FCFCB08586B2002E0BD027
:1000500001A884850B9803F04BF9102EEBD002F029
:1000600071F800200DB0F0BD01A803F041F90B902C
:1000700002F0EEF91D48784402F0A8FF80780128CC
:100080000AD06D46AF702C801948784402F09EFF6C
:100090000322294602F0C8FF164C7C44204602F099
:1000A00095FF00780E490870204602F08FFF4078D7
:1000B0000C490870002005F02BFC012005F028FCFD
:1000C00000F04CFC01F024FD00180020E81A00208C
:1000D00001180020041800204018002050190020AA
:1000E000181E0020191E002034730000067900003D
:1000F000F2780000E2780000F0B581B01D461646A7
:100100000C46074600213C2202F057F87E637C60D3
:100110000698B8633D63012038700102204602F062
:10012000CFFF01B0F0BD10B584B0826A002A1DD0A7
:10013000436A197803AC2170521E5B1C43628262D1
:10014000427C002A05D0C268521CC260827C002A10
:1001500009D1406800210091019103AC012322469E
:1001600002F07EFF2178084604B010BD012002F0A5
:1001700042F8B0B582B00546806A90422BD314464F
:10018000002905D06A6A08461146224601F0FFFFA1
:10019000687C002809D0A87C002806D0686A00196D
:1001A0006862A86A001BA86210E06A6A6868002199
:1001B00000910191234602F053FF686A00196862BA
:1001C000A86A001BA862687C002802D0E8680019B1
:1001D000E86002B0B0BD012002F00DF8F0B58DB0BE
:1001E000009316460F46044601AD284606F028FC4B
:1001F000A885000407D001A8002181850B9803F091
:1002000077F803240BE001A803F072F86762A66296
:100210000099E1620B90204600F012F8044603F0CA
:100220005BF801A9884202D10B9803F061F801A89C
:10023000808D002802D120460DB0F0BD01F0DBFF1B
:10024000F0B583B004460746103705460835064624
:10025000183621780220092906D00C2900D13EE168
:10026000A06A002804D12EE1A16A002900D12CE166
:10027000607C002811D0216B00293ED020468847A1
:1002800000283AD00128E4D024E1206A052800D1D2
:1002900024E1A06A002800D115E12046FFF743FFC2
:1002A000216A4A1C226261180876216A01AA304636
:1002B00000F045F90028E8D001A80078002800D116
:1002C0000CE1216A009702AB30462A4600F055F94E
:1002D000002800D102E1002002990029014606D140
:1002E000616A491E6162A16A491CA1620121206202
:1002F000E060A17401206074BDE721780320062925
:1003000010DC032935DC012973D0022902D003292E
:1003100000D0E4E03878002800D0E2E02868212806
:1003200056D3DEE009294ADC072973D008294AD0D0
:10033000092900D0D3E03878002800D0D1E028681F
:10034000052800D3CDE0E16888420CD9401AA26AA2
:10035000824200D30246606B411878312046FFF795
:1003600008FFA068E168814200D072E7616B7C22DF
:10037000A2E004296AD0052900D182E0062900D034
:10038000ADE03878002800D0ABE02868152800D30D
:10039000A7E0E16888420CD9401AA26A824200D3E1
:1003A0000246606B411863312046FFF7E2FEA06809
:1003B000E168814200D04CE7616B77227CE00A392A
:1003C000022900D38BE03878002800D089E0A068AB
:1003D000E16888420AD9401AA26A824200D30246E2
:1003E00000212046FFF7C5FEA068E168814264D085
:1003F0002FE73878002874D0002060740220207025
:10040000A06860612C20205CC00700D021E7032099
:1004100020701EE73878002863D12868212860D230
:10042000E16888420CD9401AA26A824200D302468F
:10043000606B411842312046FFF79BFEA068E168DF
:10044000814200D005E7616B622235E038780028F0
:1004500047D12868212844D2E26890420BD9616BC9
:100460008918801AA26A824200D302462046FFF70A
:1004700080FEA068E268824200D0EAE6616B20223A
:100480001AE0387800282CD12868212829D2E16880
:1004900088420CD9401AA26A824200D30246606B9D
:1004A000411821312046FFF764FEA068E1688142CF
:1004B00000D0CEE6616B4122885400206074207821
:1004C000401C2070C5E6002009E0616B7C220023FF
:1004D0008B5404E0022801D1012000E0032003B086
:1004E000F0BD012001F087FEB0B58CB004466D462A
:1004F000284606F0A5FAA885000407D06846002122
:1005000081850A9802F0F4FE032407E0684602F0B1
:10051000EFFE0A902046FFF793FE044602F0DCFE51
:100520006946884202D10A9802F0E2FE6846808D50
:10053000002802D120460CB0B0BD01F05CFE00786E
:10054000C308172B16D3BF2806D80346B63B8B42E9
:1005500008D8BC280AD20DE0F8280BD30346F63B96
:100560008B4201D900207047FC2803D30020107073
:100570000120704701201070704770B5017849B2B2
:10058000049D002905D40020186028700121116005
:1005900068E0CEB2B72E07D8012119600078002399
:1005A0002B70803810605DE0BF2E0FD800212970BD
:1005B000B63E1E600378B92B10DCB82B3BD0B92BAC
:1005C00050D181784078000240183DE0F72E13D8D2
:1005D0000121196000782970C038E3E7BA2B2CD0CC
:1005E000BB2B3FD14178090683781B045918C37887
:1005F0001B02C918007926E001242C70F63E1E600B
:1006000003780021F92B08DCF82B20D0F92B29D115
:10061000817840780002401822E0FA2B19D0FB2B99
:1006200020D14178090683781B045918C3781B022E
:10063000C918007913E0407806E04178090483780E
:100640001B025918C0780818106001210AE0407890
:1006500006E04178090483781B025918C07808180D
:1006600010602146084670BDF0B58BB0144602916B
:10067000064601273902104602F022FD2020019093
:1006800003AD00950936402320463946324602F034
:10069000E7FC0C3528460299224600F003F80BB01F
:1006A000F0BD0000F0B5A7B00392049105462D48B7
:1006B00000684368012118460591884300261E28DA
:1006C000304609D106AF6421274A7A44384602F001
:1006D0008FFA384606F0D6F906A902900818234F7B
:1006E0007F44A95D0F240A092140795C4170B95CFF
:1006F0000170801C761C142EF3D105980102039E14
:10070000304602F0DDFC202001901FA80090029BE3
:10071000283306AA3046059902F0A2FC0020049E68
:10072000024605990A404308E95C002A01D02140AD
:1007300000E00909092901D8795C0AE01FAEF35CE1
:10074000920004265640F3401A07795C00D5203900
:10075000049E3154401C2828E2D128200021315425
:1007600027B0F0BDE81A0020EA650000D965000056
:10077000F0B581B014460E46054601290AD1287805
:10078000302807D1022B2ED300206070302020703B
:10079000012061E00698B04222D2B11C994222D8D1
:1007A000311A009109D02946009B27460A783A70F1
:1007B000491C5B1E7F1C002BF8D10028009A1146B3
:1007C00002D02E21A154511CB2422AD26318AD1876
:1007D0000022AE5C9E54521C9042FAD18A1821E04D
:1007E000C11C994201D9002036E0871B2E20607081
:1007F00030202070002F08D0A01C3022394606F08F
:1008000015F8B91C7F1EFDD100E00221002E08D092
:10081000621800202B5C1354401C8642FAD10A183F
:1008200000E00A460025A5540120914214D2665CDE
:10083000002D0B4600D02B46302E00D00023491C43
:100840008A421D46F3D1002B06D00021E1545A1EE6
:10085000A35C2E2B00D1A15401B0F0BD80B500F0F7
:1008600001F880BDB0B5144D7D44284602F0AEFBC2
:100870000078002802D01249794401E00F497944F8
:100880000C4C204606F0F6F8284602F09FFB407814
:10089000002802D00C49794401E00A497944143413
:1008A000204606F0E7F8094979440020024605F0A1
:1008B00093FAB0BDC0180020147100009B640000C2
:1008C000A564000089640000936400008466000051
:1008D00080B5FF2002F0CCFC80BD80B500F002F8AE
:1008E00080BD0000B0B582B00A4C7C44204602F0C6
:1008F0006DFB00784142414101AD2970204602F074
:1009000065FB0122294602F08FFBFFF7ABFF02B027
:10091000B0BDC0469270000080B500F001F880BD07
:10092000B0B582B00A4C7C44204602F04FFB4078C0
:100930004142414101AD2970204602F047FB401C75
:100940000122294602F070FBFFF78CFF02B0B0BD18
:100950005670000080B500F001F880BD80B50648F3
:100960000078002801D105F0EBFD0449794400200E
:10097000024605F031FA80BD501900201C650000C8
:1009800080B500F001F880BDB0B500F01BFA054657
:100990000E48902141550E4900240C7040194470B6
:1009A0000C4804700C483C22214601F006FC0B4820
:1009B0008022214601F001FCA81C81B2202001F018
:1009C00051FEFFF7CBFF2046B0BDC0461A1E0020E7
:1009D00000180020011800200418002040180020F2
:1009E00080B500F001F880BD10B50E4800240470F9
:1009F0000D4885214170692101700C4804700C4834
:100A00003C22214601F0D9FB0A488022214601F010
:100A1000D4FB2020022101F025FEFFF79FFF204696
:100A200010BDC046001800201A1E0020011800202A
:100A3000041800204018002080B500F001F880BDA7
:100A4000B0B51948FFF750FD012804DC002819D083
:100A5000012826D002E0022820D0032814480024D0
:100A600004701448047010483C22214601F0A5FB94
:100A70001148802521462A4601F09FFB0B4845700E
:100A80006A2103E009480021417090210170202073
:100A9000022101F0E7FDFFF761FF02E0002000F016
:100AA000EBF90020B0BDC046041800201A1E00203B
:100AB00000180020011800204018002080B500F028
:100AC00001F880BD10B50E48002404700D48047074
:100AD0000D483C22214601F070FB0C488022214643
:100AE00001F06BFB0A4885214170692101702020CB
:100AF000022101F0B7FDFFF731FF204610BDC046CF
:100B000000180020011800200418002040180020C0
:100B10001A1E002080B5FFF793FF80BD80B5FFF758
:100B2000D1FF80BD80B500F001F880BDF0B5B3B055
:100B3000364804F0CCFF049001F018FF344F3A78A7
:100B4000002005900090391D21242BAE204633460D
:100B500002F03EFB202508AB0693204631462A468C
:100B600002F0CCFA3046059C21462A4601F025FBCE
:100B7000079401F0FBFE07A803906420029012A8DE
:100B80000190009525462C3722490322069C2046D9
:100B90003B4602F0D3FA28222046294601F00DFBFD
:100BA0007C201A49085C002803D0049840002330B8
:100BB00000E01B20184C207007998A0706D00123FB
:100BC00019404018002A00D5801C207012A800F09F
:100BD0001FF9422025544120902121540F480570CF
:100BE0000F4805700F483C22294601F0E6FA0748F5
:100BF0008022294601F0E1FA2020432101F032FD54
:100C0000FFF7ACFE284633B0F0BDC04640180020C8
:100C1000501A0020010600001A1E002000180020B3
:100C2000011800200418002080B500F001F880BDF4
:100C300010B50E48002404700D4804700D483C2285
:100C4000214601F0BAFA0C488022214601F0B5FA9B
:100C50000A4885214170692101702020022101F09C
:100C600001FDFFF77BFE204610BDC04600180020A6
:100C70000118002004180020401800201A1E00202F
:100C800080B500F001F880BDF0B5B3B001F06EFEA4
:100C90002F4E3278002004900090311D21252BAF7B
:100CA00028463B4602F094FA01F060FE202408AB8F
:100CB000059328463946224602F020FA3846049D1C
:100CC0002946224601F079FA079501F04FFE07A860
:100CD00003906420029012AF0197069400942C4672
:100CE0002C361C490322059D2846334602F026FA7D
:100CF00028222846214601F060FA0799C80701D04A
:100D00001C2000E01B20890700D5801C124D287094
:100D1000384600F07DF842202C544120902129547F
:100D20000E4804700E4804700E483C22214601F023
:100D300044FA0D488022214601F03FFA43210698EB
:100D400001F090FCFFF70AFE204633B0F0BDC0462C
:100D5000501A0020010600001A1E00200018002072
:100D600001180020041800204018002080B500F071
:100D700001F880BD10B50E48002404700D480470C1
:100D80000D483C22214601F018FA0C4880222146E9
:100D900001F013FA0A488521417069210170202071
:100DA000022101F05FFCFFF7D9FD204610BDC046CF
:100DB000001800200118002004180020401800200E
:100DC0001A1E0020B0B5104C41222270601C0F4D3D
:100DD0002946083101F0DBF942202822225420461E
:100DE000433029464C3101F0D2F99520285C002887
:100DF00008D06B34753520222046294601F0C7F90A
:100E00008B20B0BD6B20B0BD1A1E0020501A0020F0
:100E1000F0B581B004461748401C0021402201F083
:100E2000CCF9E078212801D0042700E00527E1195A
:100E3000202521282E4600D006460E48801B213052
:100E4000324605F0EFFCB81C8119C8B20019401EEB
:100E50000078212800D1491CC9B26118212800D08E
:100E600005460448401B41302A4605F0DBFC01B032
:100E7000F0BDC0461A1E0020F0B5ADB004469F4D2F
:100E80002868006802F0A2F806462868006802F0A8
:100E90009DF8079028684068002806D0984804F01C
:100EA00016FE2968496881423ED1202006900190B3
:100EB000984A2C32009298480121002505912B4632
:100EC00002F0CEF895480078002820D000F076F99E
:100ED000002847D00446807F04907720884F142252
:100EE0003A548F480570384663308E4E3146103183
:100EF00001F04DF93846423024363146069E3246DE
:100F000001F045F962203E54143426462CE0844812
:100F1000007812210491002826D08548784402F0F8
:100F200055F8007800281FD17648002606707648CC
:100F3000067076483C22314601F03FF97048802522
:100F400031462A4601F039F9002C00D0D1E0704832
:100F500045706A2101702020022101F083FBFFF718
:100F6000FDFCC4E0122004907720654F385C002817
:100F7000039613D03846633009AC674A2146FFF721
:100F800091FB694E7820707030203070B01C2822A0
:100F9000214601F0FCF82A2035540BE063486549EE
:100FA00079440D2201F0F3F85F486349794409223E
:100FB00005F034FC6220395C3846423014AC2246DD
:100FC00004F06EFD524E324664320A2164272046F8
:100FD00008923B4603F006FDF05D7F1C0028FBD124
:100FE00004980090653F64240898394632462346A9
:100FF000FFF7BEFB039F387800280AD000254A4936
:101000002A464B192B255855521CD5B2785D00281D
:10101000F7D14548401931782B30002907D0721C90
:101020000170531C401C117800291A46F8D1002782
:1010300007700698324D295C24AA0692284604F0CF
:101040002FFD4120295C21351CAA0492284604F07A
:1010500027FD14AD069804992A4603F069FA0A217F
:101060002846089A234603F0BDFC305D641C002826
:10107000FBD112200090653C64230898214632463B
:10108000FFF776FB079C207800280599264D0BD0AA
:101090003A461146EA195D23D0544A1CD7B2E05DA6
:1010A0000028F6D1881CC1B2681831785D3000295B
:1010B00007D0721C0170531C401C117800291A467D
:1010C000F8D10021017016480078002806D01B488E
:1010D000784401F07BFF4078002802D01949794418
:1010E00001E0174979440020024604F075FE2DB056
:1010F000F0BDD520C00101F07EF8C046E81A0020FE
:1011000040180020001800200118002004180020BA
:101110001A1E0020501A0020381B0020EC1A002054
:10112000ED1A0020F01A0020C0180020E01C00205A
:10113000606A0000686300006C630000AC68000037
:10114000506100003A610000B0B505460720284014
:101150000024012812D0022812D1002907D00A4801
:1011600002F092F8280609D501F054FF06E0FF21AD
:1011700052310548002202F09FF804462046B0BDD7
:10118000022001F038F8C0461A1E002010B50022D7
:1011900010248B5C002B0AD1A41E521C002CF8D109
:1011A00000218170302141700170022404E089180F
:1011B00008239A1A04F05CFC204610BDB0B50C4D13
:1011C0002878002803D10B480078002809D00A4C61
:1011D0004C340A4963311422204600F0F7FF0028FE
:1011E00001D0002401E0002028702046B0BDC04698
:1011F00001180020EC1A0020501A0020401800208E
:10120000F0B583B0044600780025082863D1A068B3
:10121000002860D05C4901270F7077215B4A515C40
:10122000002958D0E668002E15D1A16A042951D3AF
:10123000002644280CD1606A58497944042200F001
:10124000C5FF002804D1FFF7B9FF0646401E8641BE
:101250004F480670E6684E480078002817D0A0680E
:10126000B0420BD94B498919801BA26A824200D334
:1012700002462046FEF77DFFA068E668864204D15C
:10128000002060742078401C20703D4623E04448D4
:10129000784401F09BFE002E0AD0407800281AD036
:1012A00021203C49085C1F2101402022551A0DE0F5
:1012B000007800280ED03B48784401F087FE407843
:1012C000002808D03349002008840425A168891B20
:1012D000A94203D20325284603B0F0BD2D490918C1
:1012E000A06AA8420290024600D32A4620460192F4
:1012F000FEF73FFFA068E168814204D100206074DE
:101300002078401C20702120224A115C019BC918C2
:1013100011540299A9423D46DDD3002E24D000216C
:101320001C4F39542020395C491C3954CBB21A4C1B
:101330002046643028211D4A7A4401F059FC204699
:101340003946FFF723FF08253A2121547919461C15
:10135000A019FFF71BFF80190835202DF4D114497F
:101360007944002002460AE000240A490C540A4845
:10137000042204F07DFB0C4979442046224604F007
:101380002BFD0225A7E7C046ED1A002040180020DB
:10139000EC1A0020F01A0020C0180020CA600000DB
:1013A000EC660000C4660000005D0000A85A000062
:1013B000C05D0000F0B5A1B0174602910646157851
:1013C0004848002404704848047048483C2221469C
:1013D00000F0F3FE46488022214600F0EEFE681E33
:1013E0000A2873D2022E6CD22A460496029D012D41
:1013F00067D8781C27990191269903910FA9164661
:1014000003781B0644782404E318C4781B198478F5
:1014100024021B1908C1001D521EF1D1681E414251
:1014200041419524334D295501F0A0FA285D00284B
:1014300001D028467530009021240FA919AF20460D
:1014400032463B4601F0C4FE2022029205AE204601
:101450003946334601F052FE01F088FA0123204656
:10146000244D2946324601F059FE002428223046F8
:10147000214600F0A2FE38462146029A00F09DFE69
:1014800001F074FA2C464C341B4A28462146FFF7DB
:10149000EBF8049800281DD0009418482B21184A16
:1014A0007A44282301F0A4FB16497944002002461F
:1014B00004F092FC039A106810210143116021B0DE
:1014C000F0BDD520C001803000F095FED520C001D0
:1014D00000F091FEFFF776FC0199086009200003F7
:1014E00000F089FE001800200118002004180020D8
:1014F00040180020501A0020381B0020C01800207F
:1015000049590000265B0000A2B0002B56D01746B8
:101510001578092D52D21C4629461C31581E80B21E
:1015200081424BD8681C0590781C04901AAA20238D
:101530000693039101F0B4FD254E603630460499C0
:101540002A4600F024FE0020059970540698705534
:1015500079181F484C30142200F019FEEE19307E25
:101560006A211B4A50541B480068406800280CD070
:10157000717E0906B27E12045118039ABA5C89186A
:10158000F27E12028918884218D121201349794429
:10159000002207AF3B4601F0A1FD1D36601B1D3840
:1015A00080B20699009101960290012403221AABA1
:1015B0003846214601F0DAFD002803D1D520C001CC
:1015C00000F019FE044804700920000300F013FE27
:1015D000501A0020E81A002001180020935D000036
:1015E000F0B583B01D4614460646802844D0002E30
:1015F0006FD1002D69D002913A49087800280ED0A9
:1016000000270F703848077038483C22394600F0F0
:10161000D4FD37488022394600F0CFFD3149012002
:101620000870207833490870421E0A2A4DD2091DDD
:101630006D1E641C0022ABB2032B46D923781B0617
:1016400067783F04FB18E778DB19A7783F02DB19BE
:1016500008C1241D521C2D1F8242ECD326480021B4
:10166000017026480170009120482549204A254BE9
:101670007B44FEF741FD029900292AD1802E03D137
:1016800018480078012828D118480078002824D06C
:10169000AAB2164800232146FEF7A0FD411E0229EA
:1016A0000BD208990A68102313430B60022802D159
:1016B0000120FFF7E1FB03B0F0BD032805D00028AF
:1016C00003D10920000300F096FDD520C00100F0F1
:1016D00092FD6B20000200F08EFDD520C001FB388A
:1016E00000F089FD001800200118002004180020D7
:1016F00040180020501A0020ED1A0020EC1A00209B
:10170000381B00208DFBFFFF0B48784401F05EFC86
:101710000078084901224A7000228A70CA70421E6D
:10172000904108700198042101600920000300F035
:1017300062FDC0461A1E002072620000F0B591B032
:101740001F461446802800D1ADE0002800D009E1F2
:1017500003910490002F00D100E1894E30780028D9
:101760000DD0002535708748057087483C222946F2
:1017700000F023FD85488022294600F01EFD02204E
:1017800030702078824A10700690401E0A2800D3DC
:10179000E4E07B1E98B20021042801D30E4600E04D
:1017A0000126151D641D0320C0430890F00700D0DA
:1017B000D4E00898201807931B1F9AB20592274679
:1017C000042A01D3002600E001260278120644789C
:1017D0002404A218C478121980780002101801C5D8
:1017E0003C463C1D491C06988142DFD305980328DE
:1017F00000D8B3E00899605C000661184A781204CA
:101800001018CA788018897809024018604EF06470
:10181000012739025F4D284601F052FC002100915A
:1018200001915E4A7A441823284601F019FC079872
:1018300008380790F06C08903E460A22002538468A
:1018400029462B4604F0BCFF0746481E81410898F4
:10185000874202D80029EFD001E0002E7CD0089802
:10186000314604F009FF0A27394604F08BFF302087
:101870000843E9B209AA50543046394604F0FCFE48
:101880006D1C092E0646EAD8EBB209AA0021D154F4
:10189000009101913F4801F0E3FB3C4801F0F4FB6B
:1018A00004980399079F00295CD1802803D134480C
:1018B000007802285ED1BDB2354FF86CA8424DD3F6
:1018C0000026009601963348314622462B4601F009
:1018D000C7FB009601962D48314622462B4601F063
:1018E000BFFBF86C401BF86440D125461698089061
:1018F00020242C37009701942648012700230793C2
:1019000039462A4601F0ACFB019409AE00961F4807
:1019100039462A46079D2B4601F0A2FB1E4C0227A2
:10192000204631463A4604F0A3F82E20A07160719B
:101930002071E01D1E3631463A4604F099F81849E8
:10194000794428462A4604F047FA089A106810217C
:101950000143116011B0F0BD002396E7D520C0010E
:1019600000F049FC6B20000200F045FC0920000358
:1019700000F041FCD520C001FB3800F03CFCC04623
:101980000018002001180020041800204018002032
:10199000501A0020381B0020C0180020FD5A0000FB
:1019A000B0590000F0B58FB00C46064603AF38467C
:1019B00005F046F8B88587B2002F23D0102F78D0D5
:1019C000054603A8002686850D9801F091FC0F209E
:1019D0000003284009210903884211D0032149034B
:1019E000884234D1474806704548067046483C2234
:1019F000314600F0E2FB45488022314600F0DDFB35
:101A0000380A35E003A801F073FC0D903B4A1078CA
:101A1000E0286BD1507805280CDC022832D13848F8
:101A200000230370D178907800960194521DFFF73F
:101A3000C1FC30E0082845D13148002101701379FC
:101A4000D17890780096521DFFF778FE23E02D485C
:101A500006702B4806702C483C22314600F0ADFB46
:101A60002A488022314600F0A8FB6805400F683004
:101A70002168224A50542068801845702068801CD4
:101A8000206008E0042835D11379D1789078009649
:101A9000521DFFF7A5FD01F01FFC03A9884202D1EA
:101AA0000D9801F025FC03A8808D002812D10FB0FD
:101AB000F0BD03A8002181850D9801F019FC1020CC
:101AC00000F099FB062807D1019400200146034647
:101AD000FFF71AFE00F08FFB0A280BD108490020FF
:101AE00008701379521D0146FFF70EFD37204002A2
:101AF00000F081FB6D20000200F07DFB1A1E00202B
:101B000001180020001800200418002040180020B0
:101B100090B000240F940E940D940CA804806D4690
:101B2000284604F08DFFA88585B2002D15D0102D14
:101B300062D00746684684850A9801F0D9FB0F20D9
:101B40000003384009210E03B0421DD00321490390
:101B500088421CD10CA8078020E0684601F0C8FB31
:101B60000E990F910E940A900D980F99C0B289B2F8
:101B700000F078FD0F900D940F98002844D00DA828
:101B80000EA9FFF70FFF29E00CA8078014E02548F5
:101B900007400D20C00238180CA908801D480470A9
:101BA0001D4804703C221D48214600F006FB80229F
:101BB0001B48214600F001FBB54203D010200D99CF
:101BC00081430D910C98000A0E99174A50540C98B5
:101BD0000E99891848700E98801C0E9001F07CFBBD
:101BE0006946884202D10A9801F082FB6846808DDE
:101BF000002892D000F0FFFA684684850A9801F028
:101C000077FB102000F0F7FA014800F0F4FAC04624
:101C1000826900000018002001180020041800202C
:101C200040180020FF0700001A1E002080B500F0B9
:101C30007FFC80BDF0B581B0F74D28780C2810DD11
:101C40000D2868D00E2800D1B0E015280FD1F34838
:101C5000807901280BD1A879000708D4102000F062
:101C6000CAFA052800D1F6E00C2800D15CE2EC4C61
:101C70000027676001202070204601F0D3FA04207D
:101C800001F042FB6060692800D03EE100F0FAFB01
:101C900000F0FAFBBE25E34E7753042001F034FB3D
:101CA0006060002800D13FE2972800D13CE2C024C8
:101CB0003059002800D137E2705BC421715C80B2DA
:101CC000884200D330E201F0EBFA002800D02BE28A
:101CD00001F072FAAA2804D101F098FAAA2800D0DB
:101CE00022E23159725B50010818CC23F358002BC3
:101CF00004D09847002807D0725B3159012801D1E0
:101D00005001081800F014FC705B401C70533159EE
:101D10000029D2D108E2C24C002767600120207060
:101D2000204601F07FFA042001F0EEFA60600028FE
:101D300000D1F9E1692800D176E1972800D1F3E1DB
:101D4000C025B84C6059002800D1E5E1BE26A05B53
:101D5000C421615C80B2884200D3DDE101F0A0FAC9
:101D6000002800D0D8E101F027FAAA2804D101F018
:101D70004DFAAA2800D0CFE16159A25B50010818A2
:101D8000CC23E358002B04D09847002807D0A25B4F
:101D90006159012801D15001081800F0C9FBA05B6E
:101DA000401CA05361590029D2D1B5E1E34D002672
:101DB0006E6001202870284601F034FA042001F0FA
:101DC000A3FA6860692800D0D5E000F05BFB00F062
:101DD0005BFBBE24DA4E00203053042001F094FA5D
:101DE0006860002800D19FE1972800D19CE1C025C0
:101DF0007059002800D197E1305BC421715C80B23A
:101E0000884200D390E101F04BFA002800D08BE12A
:101E100001F0D2F9AA2804D101F0F8F9AA2800D0DB
:101E200082E17159325B50010818CC23F358002B22
:101E300004D09847002807D0325B7159012801D19E
:101E40005001081800F074FB305B401C305371598E
:101E50000029D2D168E1B94C0027676001202070C9
:101E6000204601F0DFF9042001F04EFA60600028FE
:101E700000D159E1972800D156E1692800D012E13C
:101E800000F000FB00F000FBBE25AD4E77530420B0
:101E900001F03AFA6060002800D145E1972800D1AE
:101EA00042E1C0243059002800D13DE1705BC421DB
:101EB000715C80B2884200D336E101F0F1F900286C
:101EC00000D031E101F078F9AA2804D101F09EF99F
:101ED000AA2800D028E13159725B50010818CC23A0
:101EE000F358002B04D09847002807D0725B315973
:101EF000012801D15001081800F01AFB705B401C4A
:101F0000705331590029D2D10EE1C0258C4C605953
:101F1000002800D100E1BE26A05BC421615C80B234
:101F2000884200D3F8E001F0BBF9002800D0F3E0CC
:101F300001F042F9AA2804D101F068F9AA2800D0DA
:101F4000EAE06159A25B50010818CC23E358002B4A
:101F500004D09847002807D0A25B6159012801D11D
:101F60005001081800F0E4FAA05B401CA05361592E
:101F70000029D2D1D0E00446D820714D295800293B
:101F80000FD00A46643A00D232462A50642908D853
:101F9000D4216958002904D0DC22AA582A500020F4
:101FA0008847002C00D1BFE0972C00D1BCE0C024B2
:101FB000285900282BD0BE26A85BC421695C80B2BA
:101FC000884224D201F06CF9002820D101F0F4F805
:101FD000AA2803D101F01AF9AA2818D12959AA5B15
:101FE00050010818CC23EB58002B04D09847002848
:101FF00007D0AA5B2959012801D15001081800F027
:1020000097FAA85B401CA85329590029D5D1C420B0
:10201000285CBE21695A83E0001D00206C1F00204F
:10202000801D00205019002000F02CFA00F02CFA3E
:10203000BE25434E7753042001F066F96060002806
:1020400072D0972870D0C024305900286CD0705BB3
:10205000C421715C80B2884266D201F021F9002867
:1020600062D101F0A9F8AA2803D101F0CFF8AA287B
:102070005AD13159725B50010818CC23F358002B08
:1020800004D09847002807D0725B3159012801D14C
:102090005001081800F04CFA705B401C7053315925
:1020A0000029D5D140E0D020254C2058002803D06D
:1020B000E978490800F080FAC025605900282BD043
:1020C000BE26A05BC421615C80B2884224D201F0AC
:1020D000E7F8002820D101F06FF8AA2803D101F019
:1020E00095F8AA2818D16159A25B50010818CC2391
:1020F000E358002B04D09847002807D0A25B615911
:10210000012801D15001081800F012FAA05B401C10
:10211000A05361590029D5D1C420205CBE21615A49
:10212000814201D301F0BCF801F0BAF8002801D1D6
:1021300000F068F8012001B0F0BDC046801D00200D
:102140005019002010B58CB06C46204604F078FC85
:10215000A085000406D1684601F0CAF80A90FF2065
:1021600001F086F801F0B8F86946884202D10A9871
:1021700001F0BEF86846808D002801D10CB010BD7A
:1021800000F039F880B5002001F0B2F880BDB0B59C
:10219000884208D9002A0FD0491E401E8B5C835408
:1021A000521EFBD108E0002A06D000239CB20D5D30
:1021B00005555B1C521EF9D1B0BD80B5002A04D074
:1021C0000B4611461A4604F031FB80BDB0B5401EE7
:1021D000491E002A0AD0551E8B5C845C9C422A460C
:1021E000F7D09C4204D80020C04302E0002000E069
:1021F0000120C0B2B0BD044601F06EF8214604F0E3
:102200002BFC000080B501F04BF8002800D080BD09
:10221000064800210171C170022282704170602164
:102220000170052101F030F880BDC046001D00207E
:10223000B0B51A48C078032807DC01280DD0022861
:1022400028D1174802F0FCFEB0BD04281FD0082892
:1022500020D1134802F0F2FEB0BD114C01212046FE
:1022600002F0E7FE204602F0C5FE0E4CA0790028E1
:1022700011D120460C30002506222946FFF79DFF8C
:1022800012340C2220462946FFF797FFB0BD0448C0
:1022900002F0D2FEB0BD1020FFF7ADFF001D002000
:1022A000342000206C1F00207F210140052903D825
:1022B00002484018007B7047002070476C1F0020C8
:1022C00080B515480179042917D0022906D00129C3
:1022D00020D1811D124802F09DFD80BDC2787F2172
:1022E0001140052916D84A000C4B9A180023538236
:1022F000821D0B4802F012FE80BDC2787F21114082
:10230000052907D8054A521843791373821D0448DA
:1023100002F0AEFD80BDC046001D00206C1F0020F5
:102320003420002070B5FF2A1DD815460E460446FD
:102330000D484271202101715021017080212143FB
:10234000C170D11C8170090A4170062100F09CFF08
:102350003046294600F098FF6006000E0349081831
:102360007D210901418270BD001D00206C1F0020ED
:1023700080B50A46014682201423FFF7D3FF80BDB3
:1023800080B50A46014683201423FFF7CBFF80BDAA
:1023900080B50B480178002900D080BD06218171ED
:1023A0000A21017007498A784B781B029A187D2A06
:1023B00000D37D224280C91C0348FFF7E8FE80BDA0
:1023C0006C1F0020001D00201A1E002080B51E4931
:1023D00088784A781202101809780F2908DC0E292B
:1023E0000DD00F291ED1012822D1FFF721FF23E0B4
:1023F00010291BD0162915D1FFF7CAFF1CE013487E
:102400008168643181601C21425A002A07D0642A05
:10241000134600D86423643B4352642A0ED9891EB4
:102420001029F1D10220FFF705FC80BD032801D25D
:10243000002080BDFFF744FF012080BD0021017016
:102440001020FFF7D8FEC046001D00206C1F0020A2
:10245000B0B50A2000F0D2FD084C0025202220460D
:102460002946FFF7AAFEA560A5716580257000F0DA
:1024700033FB034805604560B0BDC0466C1F0020BB
:102480008C1F00207047000002480021016041605D
:102490007047C0468C1F0020F0B589B0054608463D
:1024A00000F094FD00283FD00446006900283BD08E
:1024B000284600F08BFD014602AD1C222846019201
:1024C000FFF765FE2368EB80616829811748652264
:1024D00002709AB289B25143A36859434A07CE08A1
:1024E000002A00D0761C04279F40B9191D31817045
:1024F000090A4170032100F0C7FE2846019900F047
:10250000C3FEA16809480170012100F0BDFEE0682A
:1025100000F05CFDB9B200F0B7FEB5B2206900F082
:1025200055FD294600F0B0FE09B0F0BD001D0020A9
:1025300070B500F04BFD0446067800F0B1FE0028AF
:1025400031D17F2006402ED0E06900281DD000F058
:102550003DFD0546052E02D1A07E002824D0284648
:1025600004F090FA064613486521017031461C318B
:102570008170090A4170032100F086FE1C2120466B
:1025800000F082FEB1B228460BE00A481C25857097
:102590000021417065210170032100F075FE204685
:1025A000294600F071FE70BD20462946FFF774FFF2
:1025B00070BDC046001D002070B5002825D00B4618
:1025C0000246124C03CC083C984201D1491C616080
:1025D0001843002B02D02060054605E00025256049
:1025E00065600B4E761C30439D4201D00023636032
:1025F000082909D3074C4C430123074DAC4201D2B3
:102600009C072043DB079843904770BD8C1F002038
:10261000FFFFFF7FABAAAAAA56555555F0B581B06A
:102620000F4E01243470B11CFF2750377A1C20460E
:1026300000F010FE054670703A1A8719F91C022046
:1026400000F008FEB8702D18AE19F47000F0F6FD19
:102650000021B171902171713071E81D01B0F0BDA0
:102660001A1E0020F0B58BB00746400708D0079728
:102670000798C0B289B2FEF767FD80B20BB0F0BD1B
:10268000A520400001909E4C9C4E079710203D468F
:1026900005408AB2002A00D1B1E0002D00D0AEE0A2
:1026A000069203910490059500F0FAFD002808D0E9
:1026B00080210022304600F0FFFD012000F032F9B9
:1026C000F2E77D200001A1680D182078092820DCA0
:1026D0000728069928D0092860D10021894802914D
:1026E00001F092FA874801F009F8002837D1FFF786
:1026F00089FD80210022304600F0DEFDA068A8425E
:1027000000D3F1E0FFF762FE00F0CAFD0028F0D12F
:10271000E8E70A28039A06990BD00B2841D17D4897
:10272000784400F04BFA54E07948784400F046FAD7
:102730004FE00198C01D814200D9DBE00D46B27028
:1027400053203070100A70700321304600F09CFD59
:102750006D48294600F098FD002020703CE001986B
:10276000069A824200D9C5E09020674988548818AB
:10277000029A4270481D039A921C92B2FFF707FD1D
:10278000052261480299FFF718FD0398C01D83B226
:1027900083215C485C4A01F04BFA1AE0002800D122
:1027A000A5E00798C0B2FEF7CFFC002811D09EE04C
:1027B000FFF728FD80210022304600F07DFDA06853
:1027C000A84200D390E0FFF701FE00F069FD002869
:1027D000F0D120780028EBD10020A071207060801B
:1027E000B90600D549E7FFF70DFD3806059D0498A9
:1027F00005D5089008AA454B1846114601DF002D63
:1028000004D178066BD40020A07120703E4F0020C8
:10281000608000F045FD002801D1FFF7F3FC802126
:10282000002530462A4600F047FD022806D8B17838
:10283000727812025118C91C814208D1FFF7C6FDF7
:10284000608821780029E4D00028E2D002E000204E
:102850002070DCE73049794404223846FFF7B6FCA3
:10286000002824D02D49794404223846FFF7AEFCD5
:10287000002820D02A49794404223846FFF7A6FCD4
:1028800000282FD100F0C2FCAA281DD101203870E9
:10289000B81C402100F0ACFC7870811C89B29022F9
:1028A0007A54C11C89B200257D54011D11E0FFF747
:1028B000B5FE01460DE000207870902038707F2032
:1028C000C043079D054303E0852078706920387078
:1028D0000221EFB20795680700D1D7E6C8E6608805
:1028E000401FCAE66088C8E61020FFF784FC092074
:1028F000FFF781FC0220FFF77EFCC046001D002090
:102900006C1F0020941F00201A1E0020BE9A006039
:1029100043FCFFFF5DFCFFFFF24A0000E74A0000B6
:10292000DC4A000070B5044600F0BAFC002801D172
:10293000FFF768FC0B4E8021002530462A4600F048
:10294000BBFC3078152806D8012181400648014299
:1029500001D0002C04D1FFF739FD0546401E85410A
:10296000284670BD001D00202070200010B5FFF724
:1029700049FC084C80210022204600F09DFC207874
:102980000E2801D0FFF722FD00F08AFC0028F1D1CB
:1029900010BDC046001D0020F0B581B00092044675
:1029A000464EB14210D00F46444D002140262846E5
:1029B0003246FFF702FC009A402A00D332462846EE
:1029C0003946FFF7E4FB3D4EB07801280ADC0028C9
:1029D00025D0012860D1F01C042100F033FB4021F8
:1029E000304628E0022824D0052855D13079F178E6
:1029F00009020818324C21680027884253D1206808
:102A000000281BD00098401F85B22E480168A942BB
:102A100001D2006885B22C480068711D2EE0F01CC0
:102A2000002704223946FFF7C8FB40213046A04763
:102A300039E022484021A047002734E0B07971797D
:102A4000090209182148016001684908A8292AD803
:102A500001681C48016071783278120251181C4AD2
:102A6000116019491B4A0A600099C91F8DB201689B
:102A7000A94201D2006885B2F11D16482A46FFF727
:102A800086FB10480168491B01600F48016849191D
:102A900001602068401C20600A480068002801D0BE
:102AA000012707E00227064800210160064801606F
:102AB00004480160384601B0F0BDC046D81F002070
:102AC0001820002020200020242000201C2000208E
:102AD000282000201A1E002003480021016003481E
:102AE0000160034801607047182000202420002066
:102AF00020200020F0B581B02A4F3A682A4C216886
:102B000000291ED0002A1CD000902A4D002140220E
:102B10002846FFF752FB0520A87027480168090ADC
:102B2000297000686870214B1868000AE8701868FE
:102B300028711968206800290BD03B280DD93B2645
:102B40000CE01A48002101603960194801702160C9
:102B500026E039280AD9392609E026683968681D2F
:102B60003246FFF714FB009A10490DE026682068F2
:102B7000000A68712068A8713968E81D32461D4650
:102B8000FFF705FB2946009A2068801B2060386803
:102B9000801938600868401C08600648402190474A
:102BA00001B0F0BD242000202020002018200020AB
:102BB0006C1F0020D81F00202820002080B500298D
:102BC0000BD0064A00231360054A1160054A064BE4
:102BD0001360064A1160FFF78DFF80BD18200020AA
:102BE00020200020242000201A1E00201C2000206D
:102BF00081B0F0B58EB01393022900D2D7E100283E
:102C000000D1D4E11446002A00D1D0E10D4608904D
:102C100003F0FEFD13A809902178002900D1C6E138
:102C20006E1E00270898002905D0252903D0E11938
:102C300049787F1CF7E7B7423D4600D33546214629
:102C40002A4603F0EFFD08980496721B00D1AEE10E
:102C50004019615D6419252969D103920590641CAE
:102C60000026202007900A200190069602963346FF
:102C70001A462078641C00232D28F9D0472813DC3D
:102C80002F2823DD0346303B0A2B00D34BE13023B2
:102C900001465940314300D0079B0A2171430E1869
:102CA000303E07931346E3E7672807DC622841DCE0
:102CB000482800D0A3E00120029004E072281DDC27
:102CC000682800D0A1E0102001901AE0252800D14A
:102CD00018E12A2820D02E2800D024E121782A29A2
:102CE000059800D05EE16178482904D0732902D0AC
:102CF000682900D055E1641C012312E0732800D03C
:102D000086E00998011D0991D3B20168012B21DDEC
:102D1000022B1346ACD103E12178732900D043E1A3
:102D200002230999081D099008680690A0E7164635
:102D3000089031E1632800D1E6E0642800D0F2E099
:102D40000998011D09910068C11742184A40C50F32
:102D50000A2066E0002B069A05D10022885C521CEE
:102D60000028FBD1521E01981028059800D0DDE004
:102D7000002A00D1EAE006925000049DBD422A4696
:102D800000D33A46039B181A0190901C05900392B9
:102D9000504207902E46089B029A079880190228F5
:102DA00000D204E10878002A05D0012A13D11A467E
:102DB000834B7B4402E01A46804B7B4408930F25EB
:102DC00005400009185C039BD054D018089B5B5D3C
:102DD00043701346029A0598B04200D1E7E0491CBF
:102DE0000698401EB61E9B1C06900028D5D104985C
:102DF000B84200D338461B180893019ECBE05828F0
:102E000000D090E00120029005E0702803D08AE015
:102E1000782800D087E00998011D099102680025F3
:102E2000102090420892069001D9012710E0721EEE
:102E300007461646002106983A460B4603F0C0FCAA
:102E40004A1E9141089A904202D8721E0029EFD082
:102E5000002D00D0761E079B0020002D07D0D9B290
:102E6000302907D10AA92D220A70012500E0054664
:102E7000014601E001210546B01E0D280CD80AA824
:102E80004019761EDAB20791314603F0CFFC07995C
:102E9000761E6D1C002EFBD1002903D00AA82D211F
:102EA00041556D1C002F1CD00298002802D04648C6
:102EB000784401E0434878440790069E08983946D4
:102EC00003F0DAFB314603F05DFC0798405C0AA989
:102ED00048553846314603F0CFFB6D1CBE420746CD
:102EE000ECD90398854200D305460AA90746059EFA
:102EF00030462A4603F096FC781B58D07119089189
:102F0000064648E0252003E00998011D0991006864
:102F100005990870084603994E1E48D0401C39E0B8
:102F20000878002814D0039E059833E00398824265
:102F3000154601D305460246069205982A4603F037
:102F400071FC059F0398401B11D130E0039E21E0E6
:102F500003980699814200D3014606912022059FDD
:102F6000384603F063FC03980699401A1FD006996F
:102F70007B18AE4213D9751B0646854200D33546F1
:102F80002022184629461F4603F050FC761B0ED01F
:102F90003846781908902178002908D041E608932E
:102FA000AEE72A21039EC3E6039E0598C0E60020F3
:102FB0000EB0F0BC02BC01B00847C0469D45000001
:102FC000B5450000A1440000B744000080B50449A5
:102FD000884204D30349884201D200F005F880BD3D
:102FE0000000D0C0C079D0C07A460249C91C891AF5
:102FF000401A7047E92FD0C001DF704780B584B018
:103000000190034801A9FFF7F7FF04B080BDC04657
:103010003701006080B582B002486946FFF7ECFFD7
:1030200002B080BD3C02006080B586B00190029184
:103030000392034801A9FFF7DFFF06B080BDC04639
:103040007F03006080B584B0009001910348694619
:10305000FFF7D2FF019804B080BDC0462C05006088
:1030600080B588B000900191029203930A98049071
:103070000B98059003486946FFF7BEFF019808B01A
:1030800080BDC0463B07006080B584B00190034816
:1030900001A9FFF7B1FF029804B080BDDB0A006010
:1030A00080B586B00090019102920393034869466F
:1030B000FFF7A2FF019806B080BDC0462C0B006050
:1030C00080B584B00090019103486946FFF794FFF2
:1030D000019804B080BDC046CF10006080B586B0B6
:1030E000009001910292039303486946FFF784FF21
:1030F000019806B080BDC046ED2D006080B586B059
:10310000009001910292039303486946FFF774FF10
:10311000019806B080BDC046EA2E006080B586B03A
:10312000009001910292039303486946FFF764FF00
:10313000019806B080BDC0462E2F006080B58AB0D1
:1031400000900191029203930C9804900D980590C1
:103150000E9806900F98079003486946FFF74CFFBA
:1031600001980AB080BDC046F338006080B58AB0CF
:1031700001900291039204930C9805900D9806908B
:103180000E980790034801A9FFF736FF02980AB08E
:1031900080BDC046F139006080B586B001900291D3
:1031A0000392044801A9FFF727FF029880B206B0F6
:1031B00080BDC0466E92006080B582B0034869460B
:1031C000FFF71AFF0198C0B202B080BD4F9F0060A8
:1031D00080B588B001900291039204930A980590FB
:1031E000024801A9FFF708FF08B080BDBA5300608C
:1031F00080B584B00090019103486946FFF7FCFE5A
:10320000019804B080BDC046FCA8006080B582B0C3
:1032100003486946FFF7F0FE0198C0B202B080BDD6
:103220003CA0006080B584B00190034801A9FFF77D
:10323000E3FE029804B080BD5864006080B582B09F
:1032400003486946FFF7D8FE019802B080BDC0462A
:103250006E6A006080B586B00190029103920348C7
:1032600001A9FFF7C9FE029806B080BDD4740060C2
:1032700080B584B00190034801A9FFF7BDFE04B0FA
:1032800080BDC046BE9A006080B584B000900191B8
:1032900002486946FFF7B0FE04B080BD818300603C
:1032A00080B582B003486946FFF7A6FE019802B0D8
:1032B00080BDC046BB84006080B586B0019002919D
:1032C0000392044801A9FFF797FE029880B206B066
:1032D00080BDC046E485006080B582B00348694681
:1032E000FFF78AFE019802B080BDC046B18700603A
:1032F00080B584B00190034801A9FFF77DFE0298D4
:1033000004B080BD7588006080B584B00190044829
:1033100001A9FFF771FE0298C0B204B080BDC0469B
:103320008B9C0060F0B585B0364A1278002A03D035
:103330008321364A7A440BE00A9A452A03D883212E
:10334000334A7A4404E0072907D18321314A7A4479
:10335000022300F06DFC05B0F0BD029203900493CF
:10336000403301931E78002E1AD0052E049D08D1FB
:1033700028464130284979440522FEF727FF0028D6
:103380002BD041350027254C7C44F8B2062103F0B0
:10339000F9F9E85D615C4140E9557F1CBE42F4D11A
:1033A0000198407946300299884210D10499413100
:1033B00015483246FEF7EBFE0720124988714E8011
:1033C000092008700121039800F01EFCC3E7832147
:1033D000134A7A4402230398BBE70B4D06222A7056
:1033E000681C10497944FEF7D2FEE81D0E49794465
:1033F0000422FEF7CCFE2878431D832103982A4639
:10340000A7E7C0466C1F00201A1E002045400000A0
:10341000394000002F40000009400000FD3F00003F
:10342000BF3F0000A13F00009E3F0000F0B581B00B
:103430001D460E460446184600F0DAFB00280ED062
:103440002068011D21606A46D170C11C090A917073
:10345000811C090C5170401C000E107004E068467D
:1034600004222946FEF793FE154F082238463146BE
:10347000FEF78DFE3846083069460422FEF787FEC7
:1034800000203874F8730121B973787302203873FF
:10349000284600F0ADFB0146201D002904D0FF2185
:1034A0000422FEF78AFE03E069460422FEF76FFE5F
:1034B0008621034A1123204600F0BAFB01B0F0BD7B
:1034C0001A1E0020F0B583B08B794C792402E718DE
:1034D0008B7802934B780E781546093DACB2A74223
:1034E00003D0D21F94B2A74218D13D46002E07D078
:1034F00083211B4A7A44022300F09AFB03B0F0BDFB
:10350000022B16DC012B21D0022B1BD1AAB2009278
:10351000CB1D00220299FFF705FFEFE7ECB2A742AF
:10352000E4D0D4B2A7421546E0D083210D4A7A44B4
:10353000E1E7032B0ED0C12B04D183210A4A7A4440
:103540000423D9E783210B4A7A44D4E78321074A2D
:103550007A44D0E78321064A7A440823CCE7C04660
:10356000AB3E00004D3E00005D3E0000273E0000E7
:103570003B3E0000593E000080B5C1698A784B7817
:103580001B029B180A78812A09D0832A0DD0862A2B
:103590000FD1C91C031D0022FFF748FF80BDCA1CC4
:1035A0009BB2812100F044FB80BDC91C9AB2FFF799
:1035B00089FF80BD70B5012A13D10D460146094C23
:1035C00020462A46FEF7E3FD60194026721B0025BF
:1035D0002946FEF7F2FD8120214632462B46FEF7B2
:1035E000A1FE70BDD81F002000238376C382028213
:1035F000C16043858384C16103627047F0B583B0C5
:103600000D4604462A20215C20462030012919D08D
:1036100000290ED10021C1720178C91E012913D8D9
:10362000218BE28A914211D9A07E00281AD0012371
:1036300019E04179062905D1C17A0022C272002918
:1036400002D1E9E70021C17203B0F0BDFCD1002135
:1036500001608180A176E182418126480170E068A5
:10366000E061F1E703236E1E77427741BE009E19A9
:10367000012D01D0202300E040239F1B891AB9426D
:1036800000DC0F46012D029607D1211D1A480426A1
:103690003246FEF77CFDA07E00E00026002801D027
:1036A000401E0AE02046403000781349885501202A
:1036B0003043627E0A54461C207E029BF918019119
:1036C0000D4A9055E169002906D0BEB2D018E38AB0
:1036D000C9183246FEF75BFDE08AC019E082A07E81
:1036E000401CA076019881B203482A46FFF762FF8A
:1036F000AAE7C0466C1F0020D81F00202A21415C89
:1037000000290BD0012907D025300178062903D1E3
:103710008179484248417047002070470120704736
:10372000B0B52B2101244454011D0A4D0422284622
:10373000FEF72DFD852028726920E8710220A8710E
:103740000020687183202871092128462246FFF74E
:1037500031FFB0BDD81F0020B0B52B210124445447
:10376000011D084D04222846FEF711FD0020A87116
:10377000687188202871072128462246FFF71AFF22
:10378000B0BDC046D81F0020F0B581B0044625204A
:10379000205C052801D100255EE026462436087805
:1037A0004B781B0218188B78CD782D02EB181B0470
:1037B0001818237965792D02EB18A579E7793F026E
:1037C0007D192D04EB18834249D10B79608C0028B8
:1037D00010D03578AB4242D15B1C3370238B1B1A5F
:1037E000521F9A4200DB1A468018608492B2208DE4
:1037F000491D1BE0882B04D12046FFF7ADFF0125B2
:103800002AE0832B2BD188794B791B021818C01C16
:10381000238B85B2AB4222D1091D83B200203070C8
:10382000121F9A4200DB1A46628492B2FFF7B4FC80
:103830002085218B628C01258A420DD3E18C884240
:103840000DD10027678406207070B079012803D15C
:103850002046FFF765FF7770284601B0F0BD0520D0
:1038600070701020FEF7C7FCF0B587B01D46044607
:1038700003722020205C264620362346403303284E
:1038800002D1D748062168E00F46B17A002915D049
:103890001D4620463946FFF777FF00286DD1D048F6
:1038A000062101720021A17601222283E1820830E3
:1038B000E06104203070BF2028705AE0042807D14E
:1038C0000020A076E08270813060B080E068E06126
:1038D000681E414241418900481C90423BD80390F8
:1038E000012D0593069108D1201D0492042239462A
:1038F000FEF74DFC0699049A059BE08A00280DD03E
:10390000012D24D120461230211D04920422FEF7FD
:103910005DFC0699049A059B002818D008460321EF
:1039200002910843904216D80699785600284AD446
:10393000AB48042101720022A27601232383E28294
:103940000830E0613170BF200599087011E0022055
:103950000843904213D9A248852101720021A17623
:1039600001222283E1820830E06104203070BF2010
:103970001870217A2046FFF741FE07B0F0BD70783D
:10398000A8421DD13078012853D1012D5CD1211DD1
:103990000420029038460492029AFEF717FC06991A
:1039A000049A059B00284FD08D4806210172002102
:1039B000A17601222283E1820830E0610298D5E7F6
:1039C00087488D21C9E77B18012D13D13078012854
:1039D00018D1201D21461231049204220090019337
:1039E000FEF7F4FB019B049A002803D01878862880
:1039F00000D0D6E03078012804D1012D98D1187874
:103A0000862895D1039978184078795C09020F18B7
:103A1000208AC01E87424ADD714802990172002146
:103A2000A17601222283E1820830E0610420307017
:103A300089E7012D2ED10020A076E08270813060D0
:103A4000B080E068E06198E7785CA17E884221D18F
:103A5000069839180398171AE08A228B121A97428F
:103A600000DB1746BAB2E3691818491C0692FEF744
:103A70008EFB012D07D1E08AE1690918E08C069AD6
:103A8000FFF78AFBE084E08AC019E082A07E401C38
:103A9000A07664E05248042101720022A2761D46FD
:103AA00001232383E2820830E061317003E7019350
:103AB00018788128059B03D0862822D0832862D1DC
:103AC0000492012D29D1201D4649794404220390F6
:103AD0000292FEF77BFB002807D043497944042279
:103AE0000398FEF773FB002817D13D480B210172A4
:103AF0000021A17601222283E1820830E061029850
:103B000095E7012D3FD10492201D384979440422C4
:103B10000392FEF75BFB002856D004980699401AE2
:103B2000FF1CB84200DB3846069082B2E06901997A
:103B30000492FEF72CFB012D05D1E1690020049AC7
:103B4000FFF72AFBE08427830698E0827570002047
:103B5000A07620461230211D0422FEF718FB059B9B
:103B6000E08A012D01D1218B06E0218BCA1C824203
:103B700002D21B480321F0E688420CD201203070AB
:103B800000206063F9E61648012101720022A27646
:103B90002183E282E7E6022030702046FFF7ECFC4A
:103BA000EBE60F4C042220460099FEF7F0FA0620BF
:103BB000E0710122A27100206071BF2020710821F4
:103BC0002046FFF7F7FCD8E605480B2101720021DB
:103BD000A17601222283E1820830E061039826E782
:103BE000D81F0020D9380000CB3800009B380000D7
:103BF00080B5044979440422FEF7E8FA414248417D
:103C000080BDC046AF37000080B52A22835C0246E3
:103C10002A32002902D0002B05D080BD012BFCD117
:103C20000220107080BD01211170FFF779FD80BD69
:103C300070B504462A20205C25462035002807D090
:103C400001281FD0687906281CD1E87A002819D1EC
:103C500020464030E2610022A27603262E702383A4
:103C6000E2820170697803290DD1094E307800286D
:103C700008D003212046FFF7C1FC3078002801D08E
:103C80006978F7E770BD2046FFF7B8FC70BDC04605
:103C90006C1F0020417909040279120651188279BB
:103CA00012028918C2798A180178090643781B0420
:103CB000591883781B02C918C07809181046704734
:103CC000B0B50C460546FFF7E5FF03C428460830AB
:103CD000083CFFF7DFFFA060E16028461030FFF7E7
:103CE000D9FF2061616118352846FFF7D3FFA06135
:103CF000E161B0BDF0B581B01446802905D3002044
:103D000020606060A060E0603AE00D460646002951
:103D100007D0402D0CD1B068F168002207C42260A2
:103D20002EE003CE03C4306871686160206027E034
:103D30003F2D19D803CE2A46083E02F035FD07462E
:103D400000914020421BB068F16802F021FDC019CB
:103D50002060009841416160B068F1682A4602F035
:103D600023FDA060E1600BE0402DC8D0B068F16891
:103D70000022A260E260403D2A4602F015FD03C425
:103D800001B0F0BDF0B597B014460546080A04D05E
:103D90002021204602F03CFD84E00E4600290FD091
:103DA000802E1ED12869696903C4E8690021083C96
:103DB000E1616161AA69E060A2602161A16171E0D5
:103DC00003CD03C42868696861602060083D083C31
:103DD0002869696961612061A869E969E161A06197
:103DE00060E07F2E50D812AA28463146FFF782FFA6
:103DF0008020811B10350EAA284600F055F8149932
:103E0000039110980490401808901598119A029206
:103E100042410992139905910F9A129F0E9BD9194D
:103E2000059B5A4100230191491C059100921746B8
:103E30005F41C0430399C943049A891A0299884192
:103E400000D20123002B059800D1009F0797002B7B
:103E500000D10198069006AA103228463146FFF795
:103E600049FF079805900699099A089B0B9D0A9EA1
:103E70000D9F0C98216005996160A360E260266146
:103E80006561A061E7610DE0802E81D01035803E34
:103E9000284631462246FFF72DFF00202061606151
:103EA000A061E06117B0F0BDF0B583B01446802981
:103EB00005D3002020606060A060E0603DE00D461A
:103EC0000646002906D0402D0CD1002060602060FD
:103ED00003CE04E003CE03C430687168083CE1609F
:103EE000A0602AE03F2D1CD83768716802913846DF
:103EF0002A4602F04DFCB268F36803C41046194626
:103F00002A46083C02F044FC064601914020421B30
:103F10003846029902F048FC3018A06001984141EF
:103F20000AE0402DC5D003CE002222606260403DF1
:103F30002A4602F02DFCA060E16003B0F0BDF0B5B0
:103F400093B014460546080A04D02021204602F00A
:103F50005FFC72E00E4600290ED0802E1DD103CDED
:103F60006161206168680021E16061602A68E06148
:103F7000A2612160A16060E003CD03C42868696884
:103F800061602060083D083C2869696961612061C1
:103F9000A869E969E161A0614FE07F2E3FD802AADC
:103FA00028463146FFF780FF284610300EAA3146DA
:103FB000FFF77AFF8020811B0AAA2846FFF79AFEA6
:103FC00003980299059A049B21606060A360E260F7
:103FD000109E0C9FB819A06111990D9802464A4194
:103FE000E2610F9A01920B9A0E9D0A9B5D19019B4B
:103FF0005A41002300956D1C019515465D41C9434A
:10400000F643F61B814100D20123002B019800D119
:1040100015466561002B00D1009820610DE0802ECF
:1040200093D0803E2246103228463146FFF73CFFAF
:10403000002020606060A060E06013B0F0BD70B54B
:104040000468031D0ECB1E460E431546254335431B
:1040500016D08020002D31D05208DD075219650896
:10406000CE07AD192E461643E4075B08E31849084E
:104070000C461C433443401C002C2C46ECD11DE064
:104080000469034614330ECB0846184325461543EE
:10409000054314D000205208DD0752196508CE07E9
:1040A000AD192E461643E4075B08E31849080C4691
:1040B0001C433443401C002C2C46ECD170BD002026
:1040C00070BDF0B50B684A680568446826465640DE
:1040D0002F465F4037431CD18B68CA688568C46827
:1040E000264656402F465F40374312D10B694A6936
:1040F00005694469264656402F465F40374308D13C
:104100008269C0698B69C9699A1A814104D2012008
:10411000F0BD581BA241FAD30020F0BD70B50D468A
:104120000446FFF7CEFF002801D0012070BD03CD6B
:104130000CCC4B4042400020083C083D1A4318D1AB
:10414000A968EA68A368E66856404B40334310D13B
:1041500029696A692369666956404B40334308D12F
:10416000A869E969A269E3694B4042401A43504299
:10417000504170BDF0B58FB00B9242684D68036836
:104180000C68E418554100230E94621C09922A46DB
:1041900008935A410A92CB68C268D6438F688268F6
:1041A000D4430122E41B9E41164600D3089E002EF4
:1041B00000D10A9503920B9F0A9B7B60002E01D1D0
:1041C0000E9A0992099B3B60CB68C26885688E682D
:1041D00074190094BC605A410192FA6043694A69BB
:1041E00004690E690694361902935A410D96731CA0
:1041F00007930C921646089A5641CA69C769FB4351
:104200008D698769FC430495671B05930E92934162
:10421000039A00D3089A002A01D10D9B0793069FA9
:10422000079B5F40002A049B029D00D10C9E2A46FA
:104230007240174308D1E21A1E46059B1A460E9D8E
:10424000AA410B9F09D323E0069A079FBA1AAE41F1
:104250000B9F0E9D1E46059B1AD20022009B5B1CE5
:10426000BB60019B5341FB60099B53413B600A9B30
:1042700053417B6042694D6903690C69E3180D93F2
:1042800055410C95CD698E69C269D3438269D44387
:104290000E95254600240D9A521C0B9232460C9E18
:1042A0006641AA1A0E9A934100D20124002C0B9A5F
:1042B00000D10C9E7E61002C00D10D9A3A618A6972
:1042C000C9698369C069D218BA614841F8610FB001
:1042D000F0BDF0B590B00F920F464C6843680A6885
:1042E0000568AA1AA34100210E92521E0C921A468A
:1042F0008A410B92FD68C6680397BF680A9082687E
:104300000124D21BAE41049425460C4600D3254619
:10431000002D00D10B930F9E0B9A7260002D0A980E
:10432000039901D10E9A0C920C9A3260CA68C76840
:104330008B688568EB1A0293B36097410197F76029
:104340004A6947690B6905690895EE1A3B4693412E
:104350000E96721E09920D931E46A6410094CC69DA
:10436000C5698A69836905929A1A06950794A541D9
:10437000049C00D3009C002C01D10E9A0992099A4A
:10438000089D6A40002C059D00D10D9E34467C405E
:10439000224307D15A1B069C2246079EB2410F9F1B
:1043A00008D32AE0089A099C121BB7410F9F079E69
:1043B000069C22D20024029E721EBA60019D2A46EB
:1043C000A241FA600C9A521E0E920B9A1346A34118
:1043D0002E4300D013467B60002E0E9A00D00C9A1C
:1043E0003A604A6943690C6905692C1B0E94934134
:1043F0000D93CE698D69C46983691F462B460025DC
:104400000E9A501E0C9030460D9EAE41FA1A844111
:1044100000D20125002D0F9C0A980C9A00D10D9E08
:104420006661002D00D10E9A22618A69C96983698B
:10443000C0699A1AA2618841E06110B0F0BDF0B580
:10444000B7B00092002531952F95359533951CC84E
:10445000006830922E9334943290299527952D95AB
:104460002B950DC90968289026921E462C932A91F7
:10447000EB432EA81830019006A8183005900320B1
:10448000039002952C460496019F029D3A681E46B1
:104490007B680498214602F093F93346059A5051FF
:1044A00050194160F0003F182035802DEED103995E
:1044B00000290AD0491E0391C90026AA5658059C16
:1044C0002418059450184468DDE70C981840009EA5
:1044D000B0600899194000200B9A8A1801464141A2
:1044E0001F46159BD2184141129B3B40D2184141B7
:1044F0001C9B3B40D2184141099B069CE318139C2E
:104500001B19109C1B191D9C1B191A9C1B19249C00
:104510001B190A9C3C400D9D64194041149D3D406F
:104520006419F460504130604B41736037B0F0BDA6
:10453000F0B5FFB090B01A920A46014600207F9075
:104540007E9083908290879086908B908A906F90D7
:104550006E90739072900B681D934B688C681B94DF
:10456000CD680E694F698C691C94C96981931D9B44
:10457000809385951B9B8493899788968D911C9930
:104580008C91116853689568D46816691D965669B0
:104590009769D269719370917790769075947495BC
:1045A0007A901B907B901D98789079967C977D925D
:1045B0002EA806463036A830199003201C90000122
:1045C0006EA90D1830241D9627467EA8001929468D
:1045D0003246FFF734FF4036103F002C3C46F4D102
:1045E0001D9E103E1C99481E0029E7D11B9B2A9353
:1045F0002B932C932D93199908680B9048680A9077
:1046000088680C90C868119008691D9048691C90D2
:10461000086D0D90486D0E903C9814903D98139045
:104620004B9819904A981890499817904898169066
:1046300037981590359810903698129034980F90BE
:1046400047980690469805904598049044980390A2
:1046500033980290319A32980190309800904D989A
:104660004C993B9E399F3A9C389D299328932193DE
:104670002093259324931F93089463190996079711
:104680007E41CC182294044674412394019C009FDF
:10469000E419029F7A41039FE419049F7A41059F20
:1046A000E419069F7A410B9FE4190A9F7A410C9FF7
:1046B000E719119C6241C043C9430124C91AB041A2
:1046C000214600D31B990798C043EB43089D5B1B11
:1046D000099B9841204600D31B980029119400D0D3
:1046E000401C0D99791826911E900E9842412792F0
:1046F00026A81EA90E900D911A9AFFF73BFD129C59
:104700000F9BE118159F109E774116980A9141184A
:10471000179A7A4118980B910D181046199948412B
:104720001D990C9549191C9D4541299528911B9966
:104730002791F143DD432D1B159B9941119C00D31B
:104740001B9C1799C943169DED430A9BED1AB9416D
:1047500000D2641C1999C943189DED430B9BEB1AB9
:10476000914100D2641C1C99C9431D9AD2430C9BF1
:10477000D21A814100D2641C26941B982D902C9053
:104780002B902A900E9D28461A9C21460D9E32465B
:10479000FFF7F0FC1821284602F03AF813982D9004
:1047A00014982C90284631462246FFF7E3FC7FB050
:1047B00010B0F0BDF0B5B3B0079306920C46089167
:1047C000074612A8182102F023F800201090199033
:1047D000012018903846FFF732FC11902046FFF771
:1047E0002EFC0F9027CF3B680B93103F3E461436AC
:1047F00058CE0A911B9109901A9005951D950B981A
:1048000004921C92039302941EA959C10898394638
:10481000FFF757FC002815D00998079A10600A98EE
:104820005060B868F968D160906038697969516101
:104830001061B869F969D16190612021069801F091
:10484000E7FFC4E0019611980F99441A2AAA089E1E
:1048500030462146FFF796FA12A822AA2146FFF712
:1048600091FA2B9802460A9C62402A990B46099DB0
:104870006B4013431BD12C980246049F7A402D991C
:104880000B46059D6B40134300D0A2E02E980246D4
:104890000B9D6A402F990B46039C6340134300D045
:1048A0009AE031983099029A511A019903E023460F
:1048B0002A46691A214681410AD201242AA82146A2
:1048C0000246FFF73CFB22A821460246FFF737FBD2
:1048D0001AA83146FFF722FC0028109D30462E46CC
:1048E0002C4629462A462B462F46119555D006467A
:1048F0000027119710970F970E970D973D460C972D
:104900001AA82AA9FFF70AFC002820D02AA91AA869
:104910000246FFF7DEFC299811990143119128986E
:10492000074327980F9901430F9126981099014347
:10493000109125980D9901430D9124980E990143EA
:104940000E9123980C9901430C9122980543012460
:104950002AA821460246FFF7F2FA22A8214602467B
:10496000FFF7EDFA1AA83146FFF7D8FB0028C7D1A8
:1049700021980190209802901F9803901E980B9008
:104980001D9805901C9804901B980A901A980990FD
:10499000109A0F9B0E9C0D990C9E069860C00460A7
:1049A000083804460C348EC41199C1610798099DDA
:1049B00005600A9D4560049D8560059DC5600B9955
:1049C000016103994161029981610199C16133B02B
:1049D000F0BD381A284601E0281A2046884100D246
:1049E0006BE775E7F0B59DB0009314460391076837
:1049F000426881680191C5680669416983690293CB
:104A0000C069159214971795019A169219911896E4
:104A10001B9002981A900CA8202101F0F9FE04A81E
:104A2000182101F0F5FE00200B9003990A91891ED0
:104A30000E2943D801900098401E03900120009059
:104A4000C7437D1C1E4878440290B81C03998842D5
:104A500033D804A914A80CAE02463346FFF7AAFEC9
:104A6000E119307E029A105C88701B99199A0A43EA
:104A700017991143159A0A431A99189B0B431699D3
:104A80001943149B0B4313437F1C6D1C002BDCD17B
:104A9000E11900228A70002D0DD021782070615517
:104AA000022F08D30120215CE25D2254E1557F1ED4
:104AB000401CB842F7D3009800E001981DB0F0BD4B
:104AC0007322000002490020086002490860704714
:104AD000302000202C20002010B507480221C17092
:104AE00001218170002444704F2101700421FEF7E0
:104AF000CBFB204610BDC046001D002070B582B023
:104B00006D4600242C710320E8700220A8706C70A0
:104B10004F262E7005212846FEF7B6FB0120E870CF
:104B2000A8706C702E7004212846FEF7ADFB20465D
:104B300002B070BD10B582B001A80221C170012180
:104B40008170002444704F2101700421FEF79CFB0A
:104B5000204602B010BD000070B582B01448002499
:104B60000460144804606D46AC71697101202871BD
:104B70000421E9700526AE706C704F242C70012A58
:104B800005DC002A0AD0012A0AD1084606E0022ADA
:104B900003D0032A04D1022000E003206946887173
:104BA0006846C3710821FEF76FFB002002B070BD9C
:104BB0002C2000203020002010B582B06846002450
:104BC000C47184714171012101710421C1700521F9
:104BD000817044704F2101700821FEF755FB20467B
:104BE00002B010BDB0B582B00D46684600244471D5
:104BF00040210171C5700321817044705021017002
:104C00000621FEF741FB280601D5074800E00548CC
:104C100001687F2215400122AA400A430260204613
:104C200002B0B0BD302000202C200020B0B582B0F2
:104C30000D4668460024447180210171C57003212E
:104C400081704470502101700621FEF71DFB28067B
:104C500001D5074800E0054801687F221540012280
:104C6000AA4091430160204602B0B0BD3020002030
:104C70002C200020080601D5054800E003480278F2
:104C80007F200140012088401040704730200020E4
:104C90002C20002010B582B0684601710321C1703C
:104CA00002218170002444704F2101700521FEF71C
:104CB000EBFA204602B010BDB0B582B01C461546D6
:104CC0006846437120220271C17050210170D91CC5
:104CD0008170090A41700621FEF7D6FA284621465E
:104CE000FEF7D2FA002002B0B0BD10B582B068461F
:104CF000427130220271C17003218170002444701E
:104D0000502101700621FEF7BFFA204602B010BD07
:104D1000F0B581B0002814D015460E46044607466B
:104D2000DC3745208100204601F072FD002E00D0C6
:104D30007E612570012038702046FFF7C3FE0020F9
:104D400000E0022001B0F0BDB0B50446DC20012136
:104D500021541720C5436019432189004058002879
:104D600006D04068FEF732F9024621792046904786
:104D70000835F0D12046FFF7DDFE2046FFF7ACFEF8
:104D80000020B0BD002A08D003460020022B03D823
:104D9000DB00C918F423CA5070470220704780B561
:104DA000FFF7ACFE002080BDF0B581B00C46054693
:104DB0000026F4272846314600F05FF9002807D086
:104DC000E8590068FEF702F9024628462146904756
:104DD0000837761C032EEDD1002001B0F0BDF0B5F0
:104DE00081B00C4605460026F4272846314600F0DF
:104DF00044F9002807D0E8594068FEF7E7F8024672
:104E00002846214690470837761C032EEDD1002016
:104E100001B0F0BD70B504460646D43635461435AB
:104E2000284600F061FBD42001212150EE20205AB9
:104E30007060317D1F200840022808D001280BD067
:104E400000280ED12046294600F022F90EE0204627
:104E5000294600F0C6FA09E02046294600F09DFAEE
:104E600004E0802001402046FFF7BCFE002070BD1A
:104E7000F0B583B0029204460646DC360191002963
:104E80001AD00027F4252046394600F0F6F800280D
:104E90000DD060598069002809D03178032906D1E6
:104EA000FEF794F8034620460199029A9847083580
:104EB0007F1C032FE7D12EE020468030416D03296F
:104EC00029D10068E16F81420AD9091AE16781425C
:104ED00000D301468AB22046029900F0ABFD1AE0E9
:104EE0000025F4272046294600F0C7F800280BD0FB
:104EF000E0590069002807D03178032904D1FEF772
:104F000065F801462046884708376D1C032DE9D116
:104F1000204600F096FD002003B0F0BDF0B581B052
:104F200004460746D437009100291AD03D46002692
:104F3000F4272046314600F0A0F800280CD0E059B4
:104F40004069002808D0297A032905D1FEF73EF8E8
:104F500002462046009990470837761C032EE8D178
:104F600045E0386802283CD1E069256AA84209D9A1
:104F7000401BE061F96B4919F96382B2204600F0E9
:104F80004BFD2EE0A6693046294601F0FBFBAE4200
:104F90000CD300290AD17868864207D20025204622
:104FA00029462A4600F038FD7D601AE00025F426E7
:104FB0002046294600F061F800280BD0A059C068AF
:104FC000002807D0397A032904D1FDF7FFFF0146F5
:104FD0002046884708366D1C032DE9D1204600F095
:104FE0003CFD387B012802D139460020387300206F
:104FF00001B0F0BD70B50446DC20012121548020B1
:105000004021215021620025F4262046294600F047
:1050100034F8002807D0A0594068FDF7D7FF0246B2
:1050200021792046904708366D1C032DEDD10020D4
:1050300070BD017400207047002070470020704749
:1050400070B50446DC20205C032814D10025F4262A
:105050002046294600F011F8002808D0A059C06960
:10506000002804D0FDF7B2FF0146204688470836E5
:105070006D1C032DECD1002070BD022906D8C9009B
:105080004018F4214058411E884170470020704765
:1050900080B54A78042A08DD072A0FDC052A14D0D7
:1050A000062A1BD100F021F81DE0002A10D0012AA9
:1050B00017D0032A12D100F02AF914E0082A0AD0E6
:1050C000092A0BD100F0B1F80DE000F08BF80AE0EE
:1050D00000F0F9F807E000F0DFF804E000F0D6FB9C
:1050E00001E000F031F9002080BDB0B582B00D467E
:1050F000044601A8002101802046F0306B881A0A7E
:10510000052A11DC012A1AD0022A21D0032A32D121
:10511000D9B2022934DC002958D001295CD00229F7
:1051200029D10068C0680CE0062A19D0072A1FD0D0
:105130000F2A20D10068C069002802D11BE0006856
:105140000068FDF743FF0246207C01A990472BE051
:105150004068002829D0217C00291FD0C06A1EE0A9
:10516000217C002907D14068002804D0406B16E05C
:10517000217C00290DD02046294600F087FB23E042
:10518000032926D004292AD00529F4D10068806992
:10519000D7E740680028EED0006B00E0806AFDF79A
:1051A00015FF014601A88847014601A80288002A88
:1051B0000AD0E888002807D0824200D3024601A81E
:1051C0000280204600F012FC02B0B0BD00684068CA
:1051D000B7E700680069B4E700688068B1E7006875
:1051E0004069AEE770B504468888002807D1C888B2
:1051F000002804D12646DC363078032803D1204627
:1052000000F044FB70BD88787F250540B5702046CE
:105210002946FFF73FFD204600F013FC002D01D08A
:10522000022000E00120307070BD70B50D460446CC
:105230008E78022E1CD2DC20215C2046DC30032933
:1052400006D0022914D1002E22D00321017008E0DB
:10525000002E12D06068B0421AD0C1B22046FFF7CB
:10526000BEFD666020463146FFF79EFD02280FD145
:105270002046294600F00AFB70BD00216160022132
:10528000017020463146FFF7AAFD204600F0D9FB09
:10529000204600F0D6FB70BD80B5CA88012A0AD12D
:1052A000DC22825C032A09D0022A04D10021816019
:1052B0000146083103E000F0E9FA80BD011D01223A
:1052C00000F094FB80BDB0B50446DC20205CFE22DB
:1052D0000240022A0FD12046DC300121E160254640
:1052E0000C35806800280AD0204600F0B6FBE16843
:1052F0000220084304E0204600F0C8FAB0BD0320B5
:10530000E06002222046294600F070FBB0BDB0B537
:1053100004464888012816D10D46E4200121215079
:10532000287902280CD8C0002018F4214058002801
:1053300006D08068FDF74AFE02462046294690477F
:10534000204600F07EFBB0BDB0B50D460446DC2023
:10535000205CFE21014002291AD1688801281BD156
:105360002046DC3000218160287902280CD8C0005A
:105370002018F4214058002806D08068FDF726FE4A
:105380000246204629469047204600F05AFBB0BD11
:105390002046294600F07AFAB0BDB0B50D46044665
:1053A000DC20205C032816D12879022813D8C000FD
:1053B0002018F421405800280DD08068FDF706FE23
:1053C0000246204629469047E888002807D1204613
:1053D00000F037FB03E02046294600F057FA002092
:1053E000B0BD70B50D4604460878602101402E79A5
:1053F00020290FD1022E0DD8F0002018F42140589A
:10540000002807D08068FDF7E1FD024620462946C6
:10541000904767E06878002817D001281ED003283D
:1054200060D1DC20205C03281CD16888002808D1CA
:1054300080203043802804D020463146FFF7D2FB3D
:105440002E79022E44D8F00036E0DC20205C0328C0
:1054500018D0022811D170060AD143E0DC20205C6C
:1054600003281CD0022808D180203043802839D05E
:1054700020463146FFF7B6FB34E02046294600F0CF
:1054800005FA2FE020463146FFF7F4FB411E884124
:105490007106490D611832061ED514311DE0688869
:1054A00000281FD1700613D020463146FFF7BEFBFF
:1054B000287902280CD8C0002018F4214058002870
:1054C00006D08068FDF782FD0246204629469047B7
:1054D000204600F0B6FA05E074310860022220464A
:1054E00000F084FA002070BD0A7802704A78427099
:1054F0008A78CB781B029A1842800A794B791B0272
:105500009A1882808A79C97909028918C1807047FE
:1055100010B504468021FFF765FB00212046FFF708
:1055200061FB10BDF0B583B00E46054602A800240D
:10553000048001A8047009786020084010D0202859
:1055400037D1707801460A39022932D302281BD09C
:10555000032819D02846314600F098F9022428E0A3
:1055600070780B2813D00A280ED0062821D1F078A5
:10557000002421280FD022282246214616D102AF2E
:10558000384600F057F80AE001A901220EE028464B
:1055900000F057FA0DE002AF384600F031F801464E
:1055A0003A88F088824200D302463A80284600F0CA
:1055B0001DFA204603B0F0BDF0B581B0044682214B
:1055C0000326402532462B46FFF7C6FA022720461F
:1055D000394632462B46FFF7BFFA204639462A465F
:1055E000FFF783FB002001B0F0BD10B50446822117
:1055F000FFF7E2FA02212046FFF7DEFA002010BD95
:10560000EC21094A515C0922012904D0002905D165
:105610000749794404E00549794401E00022114634
:10562000028008467047C04634200020941D0000C8
:10563000A61D0000F0B581B00246EC201349085CBD
:10564000222400281AD001281BD1104881210327C9
:10565000402600923A463346FFF77EFA01250B4872
:1056600029463A463346FFF777FA08482946324634
:10567000FFF73BFB009A0748784404E0044878446D
:1056800001E000242046148001B0F0BD3420002049
:10569000651D0000491D0000F0B581B00446812160
:1056A0000326402532462B46FFF756FA01272046AF
:1056B000394632462B46FFF74FFA204639462A46EE
:1056C000FFF713FB002001B0F0BD000080B50129F9
:1056D00003D103480121FDF791FF002080BDC046A2
:1056E000941F0020B0B501290ED114460125402297
:1056F0002946FFF7FAFA2846FCF7D6FD024603488A
:1057000021462B46FEF7B0F80020B0BD941F0020C4
:1057100080B5022903D103487844FDF7EBF9002056
:1057200080BDC04655CCFFFFB0B502291AD1144642
:1057300002214022FFF7D9FA0B4DA879002811D198
:105740000220FCF7B1FD0246094878442146FDF7E6
:1057500023F9022806D1072028700120A8710348E8
:10576000006868800020B0BD6C1F00201C20002055
:1057700023CCFFFF70B504468321032540262A462B
:105780003346FFF7E9F9204629462A463346FFF714
:10579000E3F9204629463246FFF7A7FA002070BDFC
:1057A000002070470020704780B5032903D10348CB
:1057B0007844FDF79FF9002080BDC046CDCBFFFFA8
:1057C000B0B503291AD1144603214022FFF78DFA00
:1057D0000B4DA879002811D10320FCF765FD024686
:1057E000094878442146FDF7D7F8022806D10B2056
:1057F00028700520A8710348006868800020B0BDAB
:105800006C1F00201C2000209BCBFFFF1220088073
:10581000014878447047C0464E1E000004200880AE
:10582000014878447047C046501E00000E20088092
:10583000014878447047C046441E00000E2008808E
:10584000014878447047C046421E00000A20088084
:10585000014878447047C046401E00000E20088072
:10586000014878447047C046221E00000E20088080
:10587000014878447047C046121E00003920088055
:10588000014878447047C046831B000080B50A7801
:1058900052B2002A02D4FFF73BFE80BD4A78772A35
:1058A0000CD0062AF7D14A88144B9A42F3D1CA8801
:1058B000122A00D31222124979441CE08A88042A51
:1058C00006D1CA88282A00D328220E49794412E03A
:1058D0008A88052A06D1CA88922A00D392220A49C8
:1058E000794408E08A88072AD5D1CA88B22A00D329
:1058F000B2220649794400F079F880BDEE03000039
:10590000A81B0000D01D0000921B0000101C00000E
:10591000F0B581B004464520850024480026314674
:105920002A46FCF74AFC224F38460C300622314604
:10593000FCF743FC12370C2238463146FCF73DFC9D
:10594000002C2DD0194C0026204631462A46FCF763
:1059500034FC1A49794420463246FFF7D9F9184AEF
:105960007A4430462146FFF70DFA0120154A7A4461
:105970002146FFF707FAFF2252320E480E49FDF783
:1059800033FE0220104A7A442146FFF7FBF9032137
:1059900040222046FFF7A9F92046FFF700FA02E06F
:1059A0000248FFF7D1F901B0F0BDC0463420002015
:1059B0006C1F0020941F00201A1E0020EC1A00000B
:1059C000581C0000821C0000A21C00006021018005
:1059D000014878447047C046F21C00000A2101804B
:1059E000014878447047C046421D0000B0B50C46DF
:1059F000D421022343508261C2610146D431CC6379
:105A0000016A914200D80A4693B2002529462246EF
:105A1000FFF752F92846B0BDB0B50C46016A914275
:105A200000D80A4693B2002529462246FFF744F9DA
:105A30002846B0BD10B500242146FFF756F9204690
:105A400010BD10B5D4210422425000242146224624
:105A50002346FFF731F9204610BD10B5D4210522A9
:105A60004250002421462246FFF73FF9204610BD50
:105A7000B0B5002A0ED0094B7B440C7824091C5D7C
:105A800004700C780F2525405C5D4470801C491C17
:105A9000521EF2D100210170B0BDC046EF180000C7
:105AA000F0B589B014460E46074601AD002120220C
:105AB0002846FCF782FBA81B203039463246FCF70B
:105AC00066FB28462146FEF7FBF809B0F0BD80B51D
:105AD0007C21415C783001290ADD02290CD00329A0
